:100000000C945E000C94AE060C94DB060C948600F7
:100010000C9486000C9486000C9486000C94860048
:100020000C9486000C9486000C9486000C94860038
:100030000C9486000C9486000C9486000C94860028
:100040000C9408070C9486000C94D2090C94040AB2
:100050000C9486000C9486000C9486000C94860008
:100060000C9486000C948600000000080002010039
:100070000003040700000000000000000102040863
:100080001020408001020408102001020408102002
:10009000040404040404040402020202020203032E
:1000A0000303030300000000250028002B000000CC
:1000B0000000240027002A00E704340A11241FBE90
:1000C000CFEFD8E0DEBFCDBF11E0A0E0B1E0E6E9C0
:1000D000F7E102C005900D92A03CB107D9F725E0E9
:1000E000A0ECB1E001C01D92AD32B207E1F710E023
:1000F000CCEBD0E004C02297FE010E94460BC83B27
:10010000D107C9F70E94780A0C94C90B0C9400001F
:1001100081E08093C10108958091C101882331F06D
:1001200081E08093C0011092C10108958091C001C7
:10013000803899F41092C00181E08093C4012BE0D3
:1001400030E040E050E061E070E080E090E00E944C
:10015000DB0A7093C3016093C2010895CF93DF93CC
:10016000EC0185EC91E00E94E20440E651E064E09D
:1001700085EC91E00E946B0442E651E062E085EC80
:1001800091E00E946B04AE0166E085EC91E00E9474
:100190006B0425EC31E047E061E080E0DF91CF9136
:1001A0000C9438041092C0011092C1011092C30146
:1001B0001092C2011092C40162E082E00E941E0807
:1001C00042E050E068E870E080E00E948E0661E066
:1001D0008AE00E941E0826E040E052EC61E070E0F8
:1001E00080E994E00E94700980E00E94D807BC0179
:1001F000882777FD8095982F0E94AF0A60E08AE0FB
:100200000E94570884E691E00C94AE0080E791E0EC
:100210000E94AE0068EE73E080E090E00E947507F7
:1002200084E791E00E94AE0068EE73E080E090E029
:100230000E94750789E791E00E94AE0068EE73E0C6
:1002400080E090E00E9475078FE791E00E94AE0089
:1002500068EE73E080E090E00E94750785E891E029
:100260000E94AE0068EE73E080E090E00E947507A7
:1002700089E891E00E94AE0068EE73E080E090E0D3
:100280000E9475078EE891E00E94AE0068EE73E070
:1002900080E090E00E94750783E991E00E94AE0043
:1002A00068EE73E080E090E00E94750789E991E0D4
:1002B0000E94AE0068EE73E080E090E00E94750757
:1002C0008DE991E00E94AE0068EE73E080E090E07E
:1002D0000C9475078091C4018823B1F01092C40179
:1002E00061E08AE00E9457086AEF70E080E090E0E9
:1002F0000E94750760E08AE00E9457080E9406018C
:1003000081EA91E00C94AE0008956FE070E080E027
:1003100090E00E947507F8940E948C0078940C94E9
:100320006A01EF92FF920F931F93CF93DF9300D058
:10033000CDB7DEB78C017A018DE590E09A83898391
:10034000663050F5633091F038F4613061F062301E
:10035000B1F460E171E00FC0643059F0653079F4B8
:1003600064E071E00FC064E171E005C06CE071E031
:1003700002C068E071E0C8010E94B60B02C065309F
:1003800021F0B701C8010E94B60BBE016F5F7F4F1D
:10039000C8010E94B60B0EC0663061F4BA01C801F4
:1003A0000F900F90DF91CF911F910F91FF90EF90E1
:1003B0000C94B60B0F900F90DF91CF911F910F917E
:1003C000FF90EF90089520E034E0639FB001112486
:1003D000E22FF0E0DC01AE0FBF1FE60FF71FE9537D
:1003E000FC4F30813C932F5F243090F32093C60361
:1003F000089520E035E0639FB0011124E22FF0E082
:10040000DC01AE0FBF1FE60FF71FED5CFB4F308125
:100410003C932F5F253090F32093C5030895CF922E
:10042000DF92EF92FF920F931F93CF93DF93CDB79D
:10043000DEB7A3970FB6F894DEBF0FBECDBF282F4F
:100440008A0185E0EBE4F1E0DE01569601900D9221
:100450008A95E1F77E0181E1E80EF11C85E0F70164
:1004600011928A95E9F71F8E18A219A21AA28BE59C
:100470008B8F88E68C8F80E38D8F8DE58E8F80E16A
:10048000E0E5F1E0DE01119601900D928A95E1F729
:10049000643009F0AEC0CE014F962BA30E94E30159
:1004A0002BA1203108F051C0622FC7010E94F90131
:1004B000F801C080D12CDC2CCC248181C82AC60153
:1004C0000D96888F9F8BE0919004F09191040280AB
:1004D000F381E02D45E050E0BE016A5E7F4F80E988
:1004E00094E00995E0919004F09191040280F381E9
:1004F000E02D44E050E0BE01655E7F4F80E994E06E
:100500000995E0919004F09191040280F381E02D2F
:1005100045E050E0B70180E994E00995E09190044E
:10052000F09191040280F381E02D44E050E0BE019F
:10053000615E7F4F80E994E00995E0919004F0912D
:100540009104A601455F5F4F7BC1243108F081C152
:10055000622FC7010E94E301F801C080D12CDC2C7E
:10056000CC248181C82AC6010C96888F9F8BE0918C
:100570009004F09191040280F381E02D45E050E079
:10058000BE016A5E7F4F80E994E00995E091900496
:10059000F09191040280F381E02D44E050E0BE012F
:1005A000655E7F4F80E994E00995E0919004F091B9
:1005B00091040280F381E02D44E050E0B70180E92E
:1005C00094E00995E0919004F09191040280F38108
:1005D000E02D44E050E0BE01615E7F4F80E994E091
:1005E0000995E0919004F0919104A601465F5F4F58
:1005F00027C1653019F0663009F090C0CE014F96E2
:100600002BA30E94E3012BA1203108F042C0622FEE
:10061000C7010E94F901F801C080D12CDC2CCC2448
:100620008181C82AC6010996888F9F8BE09190042A
:10063000F09191040280F381E02D45E050E0BE018D
:100640006A5E7F4F80E994E00995E0919004F09113
:1006500091040280F381E02D45E050E0B70180E98C
:1006600094E00995E0919004F09191040280F38167
:10067000E02D44E050E0BE01615E7F4F80E994E0F0
:100680000995E0919004F0919104A601495F5F4FB4
:10069000D7C0243108F0DDC0622FC7010E94E301FA
:1006A000F801C080D12CDC2CCC248181C82AC60161
:1006B0000896888F9F8BE0919004F09191040280BE
:1006C000F381E02D45E050E0BE016A5E7F4F80E996
:1006D00094E00995E0919004F09191040280F381F7
:1006E000E02D44E050E0B70180E994E00995E09105
:1006F0009004F09191040280F381E02D44E050E0F9
:10070000BE01615E7F4F80E994E00995E09190041D
:10071000F0919104A6014A5F5F4F92C0673009F0E3
:1007200098C0CE014F962BA30E94E3012BA120314C
:1007300008F042C0622FC7010E94F901F801C08091
:10074000D12CDC2CCC248181C82AC6014596888F07
:100750009F8BE0919004F09191040280F381E02D51
:1007600045E050E0BE016A5E7F4F80E994E0099564
:10077000E0919004F09191040280F381E02D45E036
:1007800050E0B70180E994E00995E0919004F09180
:1007900091040280F381E02D40E150E0BE016F5FE3
:1007A0007F4F80E994E00995E0919004F0919104E5
:1007B000A6014D5E5F4F44C0243108F04AC0622F4D
:1007C000C7010E94E301F801C080D12CDC2CCC24AD
:1007D0008181C82AC6014496888F9F8BE09190043E
:1007E000F09191040280F381E02D45E050E0BE01DC
:1007F0006A5E7F4F80E994E00995E0919004F09162
:1008000091040280F381E02D44E050E0B70180E9DB
:1008100094E00995E0919004F09191040280F381B5
:10082000E02D40E150E0BE016F5F7F4F80E994E032
:100830000995E0919004F0919104A6014E5E5F4FFE
:10084000B8016E5F7F4F0280F381E02D80E994E074
:100850000995A3960FB6F894DEBF0FBECDBFDF910A
:10086000CF911F910F91FF90EF90DF90CF9008955F
:10087000CF93DF9300D000D0CDB7DEB7E82F862F1F
:10088000642F19821A821B821C82E11104C0A90103
:100890000E940F0219C0E630B8F484E0E89FF0012E
:1008A0001124E45EFE4F80818D83E0919004F091ED
:1008B00091040280F381E02D44E050E0BE016F5FBF
:1008C0007F4F80E994E009950F900F900F900F9063
:1008D000DF91CF910895CF92DF92EF92FF920F9325
:1008E0001F93CF93DF93CDB7DEB764970FB6F8941D
:1008F000DEBF0FBECDBF7C010AE619E62EE630E072
:1009000009831A832B833C83FE01359680E1DF0146
:100910001D928A95E9F7F701008110E0102F00275A
:100920008181082B6630B1F4C701800F911FDA0175
:10093000FA0101900020E9F73197E41BF50B9D01C6
:10094000241B350B2E173F0738F52D91FC01219301
:10095000CF01EECF663038F5FE0131966F01CF0141
:100960000E949101CE010496D701A00FB11FAD01E5
:10097000F60101900020E9F73197EC19FD099D017E
:10098000241B350B2E173F0728F4FC012191CF01C2
:100990002D93EECF035011090E0F1F1FD701119693
:1009A0000C9311971C9364960FB6F894DEBF0FBE9C
:1009B000CDBFDF91CF911F910F91FF90EF90DF900E
:1009C000CF900895FC01108222E021830895909138
:1009D00048019093330420914501209334046091A1
:1009E00031016093350430912D01309336048091AC
:1009F000490180933704909338042093390460931D
:100A00003A0450912E0150933B0480933C04909300
:100A10003D0420933E0460933F04E0912F01E09356
:100A200040048093410490934204209343046093D4
:100A30004404709130017093450480934604909370
:100A40004704209348046093490460934A048093C8
:100A50004B0490934C0420934D0450934E04E09328
:100A60004F04809350049093510420935204309388
:100A70005304F0913301F093540480935504909300
:100A80005604209357043093580440913501409305
:100A9000590480935A0490935B0420935C04509310
:100AA0005D0440912C0140935E0480935F04909319
:100AB0006004209361043093620430936304809354
:100AC00064049093650420936604309367047093E4
:100AD00068048093690490936A0420936B043093B4
:100AE0006C0460936D0480936E0490936F04209364
:100AF0007004509371045093720480937304909324
:100B00007404209375045093760470937704809353
:100B100078049093790420937A0450937B04609333
:100B20007C0480937D0490937E0420937F046093E3
:100B300080046091320160938104809382049093D9
:100B4000C703609136016093C8034093C903809343
:100B5000CA039093CB036093CC033093CD0380936F
:100B6000CE039093CF03609141016093D0034093F3
:100B7000D1038093D2039093D3036093D403309333
:100B8000D5038093D6039093D7036093D8035093F3
:100B9000D9038093DA039093DB0360914201609361
:100BA000DC034093DD038093DE039093DF036093C7
:100BB000E0033093E1038093E2039093E3036093B7
:100BC000E4035093E5038093E6039093E703A09139
:100BD0004701A093E8034093E9038093EA039093CD
:100BE000EB036093EC033093ED038093EE0390935B
:100BF000EF03609146016093F0034093F10380930B
:100C0000F2039093F3036093F4033093F50380931E
:100C1000F6039093F703609143016093F8034093C8
:100C2000F9038093FA039093FB036093FC033093E2
:100C3000FD038093FE039093FF03609300045093A1
:100C40000104809302049093030450913F01509358
:100C500004044093050480930604909307042093B2
:100C60000804E093090480930A0490930B042093F2
:100C70000C0470930D0480930E0490930F04209342
:100C80001004F093110480931204909313042093A2
:100C9000140420913401209315048093160490933A
:100CA0001704509318044093190480931A049093E6
:100CB0001B0420913E0120931C0440931D0480934B
:100CC0001E0490931F0420932004309321048093EA
:100CD00022049093230420913D0120932404409307
:100CE00025048093260490932704209328043093AE
:100CF000290480932A0490932B0420913C01209393
:100D00002C0440932D0480932E0490932F04209361
:100D10003004409331048093320408958230E8F423
:100D2000E82FF0E0EE0FFF1FED57FB4F718360835C
:100D3000813041F0809169008C7F842B8093690021
:100D4000E89A089580916900440F551F440F551F7C
:100D5000837F842B80936900E99A08951F920F92F4
:100D60000FB60F9211242F933F934F935F936F937E
:100D70007F938F939F93AF93BF93EF93FF93809154
:100D8000830490918404892B29F0E0918304F091ED
:100D900084040995FF91EF91BF91AF919F918F913D
:100DA0007F916F915F914F913F912F910F900FBE67
:100DB0000F901F9018951F920F920FB60F9211244B
:100DC0002F933F934F935F936F937F938F939F9353
:100DD000AF93BF93EF93FF93809185049091860426
:100DE000892B29F0E0918504F09186040995FF9103
:100DF000EF91BF91AF919F918F917F916F915F9193
:100E00004F913F912F910F900FBE0F901F9018950B
:100E10001F920F920FB60F9211242F933F938F932F
:100E20009F93AF93BF938091880490918904A09180
:100E30008A04B0918B043091870423E0230F2D376F
:100E400020F40196A11DB11D05C026E8230F0296CE
:100E5000A11DB11D20938704809388049093890479
:100E6000A0938A04B0938B0480918C0490918D049C
:100E7000A0918E04B0918F040196A11DB11D8093A5
:100E80008C0490938D04A0938E04B0938F04BF9133
:100E9000AF919F918F913F912F910F900FBE0F9027
:100EA0001F9018953FB7F89480918C0490918D0411
:100EB000A0918E04B0918F0426B5A89B05C02F3F4A
:100EC00019F00196A11DB11D3FBF6627782F892F0C
:100ED0009A2F620F711D811D911D42E0660F771FD1
:100EE000881F991F4A95D1F70895CF92DF92EF920C
:100EF000FF92CF93DF936B017C010E945207EB01BD
:100F0000C114D104E104F10489F00E94F70A0E949F
:100F100052076C1B7D0B683E734090F381E0C81A4A
:100F2000D108E108F108C851DC4FEACFDF91CF9139
:100F3000FF90EF90DF90CF900895789484B5826011
:100F400084BD84B5816084BD85B5826085BD85B56D
:100F5000816085BDEEE6F0E0808181608083E1E81C
:100F6000F0E0108280818260808380818160808354
:100F7000E0E8F0E0808181608083E1EBF0E0808157
:100F800084608083E0EBF0E0808181608083EAE729
:100F9000F0E08081846080838081826080838081B2
:100FA000816080838081806880831092C100089571
:100FB0008E3008F08E50877020914A0190E4299F6E
:100FC00090011124822B80937C0080917A008064B0
:100FD00080937A0080917A0086FDFCCF8091780022
:100FE0002091790090E0922B0895833081F028F4CD
:100FF000813099F08230A1F008958730A9F08830CF
:10100000B9F08430D1F4809180008F7D03C080914D
:1010100080008F7780938000089584B58F7702C019
:1010200084B58F7D84BD08958091B0008F7703C013
:101030008091B0008F7D8093B0000895CF93DF93AF
:1010400090E0FC01E458FF4F2491FC01E057FF4F72
:101050008491882349F190E0880F991FFC01E255A3
:10106000FF4FA591B4918C559F4FFC01C591D49130
:101070009FB7611108C0F8948C91209582238C93BE
:10108000888182230AC0623051F4F8948C91322F07
:10109000309583238C938881822B888304C0F894B5
:1010A0008C91822B8C939FBFDF91CF9108950F93EA
:1010B0001F93CF93DF931F92CDB7DEB7282F30E079
:1010C000F901E859FF4F8491F901E458FF4F149159
:1010D000F901E057FF4F04910023C9F0882321F064
:1010E00069830E94F5076981E02FF0E0EE0FFF1F92
:1010F000EC55FF4FA591B4919FB7F8948C91611175
:1011000003C01095812301C0812B8C939FBF0F904A
:10111000DF91CF911F910F910895FC01818D228D58
:1011200090E0805C9F4F821B91098F7399270895EF
:10113000FC01918D828D981731F0828DE80FF11DA1
:10114000858D90E008958FEF9FEF0895FC01918DBC
:10115000828D981761F0828DDF01A80FB11D5D9619
:101160008C91928D9F5F9F73928F90E008958FEF87
:101170009FEF08958AE29AE0892B49F080E090E0A1
:10118000892B29F00E942A0A81110C9400000895ED
:10119000FC01848DDF01A80FB11DA35ABF4F2C9114
:1011A000848D90E001968F739927848FA689B789E3
:1011B0002C93A089B1898C9180648C93938D848DBC
:1011C000981306C00288F389E02D80818F7D80838B
:1011D0000895CF93DF93EC01888D8823C9F0EA89C5
:1011E000FB89808185FD05C0A889B9898C9186FD20
:1011F0000FC00FB607FCF5CF808185FFF2CFA8891D
:10120000B9898C9185FFEDCFCE010E94C808E7CF48
:10121000DF91CF910895CF92DF92FF920F931F93AA
:10122000CF93DF931F92CDB7DEB76C0181E0D6017B
:1012300058968C9358975B969C915B975C968C9193
:101240005C97981307C05096ED91FC91519780815F
:1012500085FD2EC0F601038D10E00F5F1F4F0F7349
:101260001127F02EF601848DF81211C00FB607FC7D
:10127000F9CFD6015096ED91FC915197808185FF71
:10128000F1CFC60169830E94C8086981EBCF838DC5
:10129000E80FF11DE35AFF4F6083D6015B960C9374
:1012A0005B975296ED91FC915397808180620CC0C0
:1012B000D6015696ED91FC91579760835096ED912B
:1012C000FC91519780818064808381E090E00F9051
:1012D000DF91CF911F910F91FF90DF90CF900895F4
:1012E000BF92CF92DF92EF92FF92CF93DF93EC0108
:1012F0006A017B01B22EE889F98982E08083411579
:1013000081EE580761057105A1F060E079E08DE399
:1013100090E0A70196010E94F80A21503109410985
:1013200051095695479537952795211580E138073E
:1013300098F0E889F989108260E874E88EE190E01D
:10134000A70196010E94F80A21503109410951096B
:101350005695479537952795EC85FD853083EE8525
:10136000FF852083188EEC89FD89B082EA89FB898C
:10137000808180618083EA89FB89808188608083A5
:10138000EA89FB89808180688083EA89FB89808182
:101390008F7D8083DF91CF91FF90EF90DF90CF9092
:1013A000BF9008951F920F920FB60F9211242F93A2
:1013B0008F939F93EF93FF93E091A004F091A1048A
:1013C0008081E091A604F091A70482FD12C0908173
:1013D0008091A9048F5F8F732091AA04821751F026
:1013E000E091A904F0E0E057FB4F958F8093A904AA
:1013F00001C08081FF91EF919F918F912F910F906C
:101400000FBE0F901F9018951F920F920FB60F925C
:1014100011242F933F934F935F936F937F938F93F9
:101420009F93AF93BF93EF93FF9380E994E00E9463
:10143000C808FF91EF91BF91AF919F918F917F91DC
:101440006F915F914F913F912F910F900FBE0F9031
:101450001F90189580E994E00E948D0821E0892B67
:1014600009F420E0822F08951092930410929204C0
:1014700088EE93E0A0E0B0E080939404909395040C
:10148000A0939604B093970484EB91E09093910419
:101490008093900485EC90E090939D0480939C044D
:1014A00084EC90E090939F0480939E0480EC90E005
:1014B0009093A1048093A00481EC90E09093A30406
:1014C0008093A20482EC90E09093A5048093A404FE
:1014D00086EC90E09093A7048093A6041092A90450
:1014E0001092AA041092AB041092AC0408950895CF
:1014F0000E949D070E94770A0E94D200CAEBD8E0A2
:101500000E9485012097E1F30E94BA08F9CFCF929B
:10151000DF92EF92FF920F931F93CF93DF936C01B3
:101520007A01EB01E60EF71E00E010E0CE15DF05B4
:1015300061F06991D601ED91FC910190F081E02D6F
:10154000C6010995080F191FF1CFC801DF91CF918E
:101550001F910F91FF90EF90DF90CF90089561154C
:1015600071058105910511F00C94AD0B0895CF9391
:10157000DF9300D000D0CDB7DEB79B01AC01611581
:1015800071058105910569F069833A834B835C831A
:101590000E94A80B29813A814B815C810E941A0B21
:1015A00003C060E070E0CB010F900F900F900F90A0
:1015B000DF91CF910895CF92DF92EF92FF926B016E
:1015C0007C01621773078407950764F4CA01B901A7
:1015D0006C197D098E099F090E94B70A6C0D7D1D4B
:1015E0008E1D9F1DFF90EF90DF90CF90089508957E
:1015F000A1E21A2EAA1BBB1BFD010DC0AA1FBB1F17
:10160000EE1FFF1FA217B307E407F50720F0A21B88
:10161000B30BE40BF50B661F771F881F991F1A94F5
:1016200069F760957095809590959B01AC01BD011F
:10163000CF010895052E97FB1EF400940E94310BF4
:1016400057FD07D00E94F80A07FC03D04EF40C9413
:10165000310B50954095309521953F4F4F4F5F4F3F
:10166000089590958095709561957F4F8F4F9F4F0E
:1016700008950E944A0BA59F900DB49F900DA49FC2
:10168000800D911D11240895EE0FFF1F0590F49118
:10169000E02D0994A29FB001B39FC001A39F700DDC
:1016A000811D1124911DB29F700D811D1124911D6A
:1016B00008958F929F92AF92BF92CF92DF92EF9256
:1016C000FF92CF93DF93EC01688179818A819B81BE
:1016D000611571058105910521F464E279ED8BE5D1
:1016E00097E02DE133EF41E050E00E941A0B4901F1
:1016F0005A019B01AC01A7EAB1E40E94390B6B01CE
:101700007C01ACEEB4EFA50194010E94C40BC60E9F
:10171000D71EE81EF91EF7FE06C081E0C81AD108E0
:10172000E10880E8F80AC882D982EA82FB82C70110
:10173000B6019F77DF91CF91FF90EF90DF90CF9030
:10174000BF90AF909F908F9008950E94590B08957D
:1017500080E091E00E94590B08956093000170931E
:10176000010180930201909303010895FB01DC01C4
:101770000D900020E9F7119701900D920020E1F7FC
:101780000895B7FF0C94390B0E94390B821B930B01
:061790000895F894FFCF5C
:10179600010000005B6400005B7600005B740000E3
:1017A6005B7300005B700000FD000102FD00010399
:1017B600FD000104FD000121FD00018830313233B6
:1017C60034353637383966737674643D7A7978728B
:1017D6007067686E6F6D6B695B5D01FD001F0100D0
:1017E6005B67325D5B68305D5B6E315D5B6F315DA3
:1017F6003800350068656C6C6F20776F726C64001A
:1018060074656E006E696E6500656967687400735D
:101816006576656E00736978006669766500666F41
:1018260075720074687265650074776F006F6E6517
:1018360000616E616C207761727466616365210078
:10184600000000000B09870A8D08A6089808E90819
:00000001FF
